{
  "contractName": "Splitter",
  "abi": [
    {
      "inputs": [],
      "payable": false,
      "stateMutability": "nonpayable",
      "type": "constructor"
    },
    {
      "constant": true,
      "inputs": [],
      "name": "getSplitterAddress",
      "outputs": [
        {
          "name": "",
          "type": "address"
        }
      ],
      "payable": false,
      "stateMutability": "view",
      "type": "function"
    },
    {
      "constant": true,
      "inputs": [],
      "name": "getSplitterBalance",
      "outputs": [
        {
          "name": "",
          "type": "uint256"
        }
      ],
      "payable": false,
      "stateMutability": "view",
      "type": "function"
    },
    {
      "constant": true,
      "inputs": [
        {
          "name": "personAddr",
          "type": "address"
        }
      ],
      "name": "getIndividualBalance",
      "outputs": [
        {
          "name": "",
          "type": "uint256"
        }
      ],
      "payable": false,
      "stateMutability": "view",
      "type": "function"
    },
    {
      "constant": true,
      "inputs": [],
      "name": "getAliceBalance",
      "outputs": [
        {
          "name": "",
          "type": "uint256"
        }
      ],
      "payable": false,
      "stateMutability": "view",
      "type": "function"
    },
    {
      "constant": true,
      "inputs": [],
      "name": "getBobBalance",
      "outputs": [
        {
          "name": "",
          "type": "uint256"
        }
      ],
      "payable": false,
      "stateMutability": "view",
      "type": "function"
    },
    {
      "constant": true,
      "inputs": [],
      "name": "getCarolBalance",
      "outputs": [
        {
          "name": "",
          "type": "uint256"
        }
      ],
      "payable": false,
      "stateMutability": "view",
      "type": "function"
    },
    {
      "constant": true,
      "inputs": [],
      "name": "getAliceAddress",
      "outputs": [
        {
          "name": "",
          "type": "address"
        }
      ],
      "payable": false,
      "stateMutability": "view",
      "type": "function"
    },
    {
      "constant": true,
      "inputs": [],
      "name": "getBobAddress",
      "outputs": [
        {
          "name": "",
          "type": "address"
        }
      ],
      "payable": false,
      "stateMutability": "view",
      "type": "function"
    },
    {
      "constant": true,
      "inputs": [],
      "name": "getCarolAddress",
      "outputs": [
        {
          "name": "",
          "type": "address"
        }
      ],
      "payable": false,
      "stateMutability": "view",
      "type": "function"
    },
    {
      "constant": false,
      "inputs": [],
      "name": "sendFromAlice",
      "outputs": [
        {
          "name": "",
          "type": "uint256"
        }
      ],
      "payable": true,
      "stateMutability": "payable",
      "type": "function"
    }
  ],
  "bytecode": "0x608060405273163935d8bc423c74aae135d14d21711c8e5216e56000806101000a81548173ffffffffffffffffffffffffffffffffffffffff021916908373ffffffffffffffffffffffffffffffffffffffff160217905550738b070595588afe0cd0b46ef0129edf70bcfed99d600160006101000a81548173ffffffffffffffffffffffffffffffffffffffff021916908373ffffffffffffffffffffffffffffffffffffffff160217905550736985c56691276c72720a67740db96300effffab2600260006101000a81548173ffffffffffffffffffffffffffffffffffffffff021916908373ffffffffffffffffffffffffffffffffffffffff16021790555034801561010e57600080fd5b506105db8061011e6000396000f3006080604052600436106100a4576000357c0100000000000000000000000000000000000000000000000000000000900463ffffffff16806321c39fb9146100a957806325c4dc3c146100d45780633f868b0f146100ff57806357903b0b14610156578063a4743ec914610181578063bf778f521461019f578063e304b0b4146101f6578063e572bc101461024d578063f1a16f68146102a4578063f20031e6146102cf575b600080fd5b3480156100b557600080fd5b506100be610326565b6040518082815260200191505060405180910390f35b3480156100e057600080fd5b506100e9610345565b6040518082815260200191505060405180910390f35b34801561010b57600080fd5b50610114610385565b604051808273ffffffffffffffffffffffffffffffffffffffff1673ffffffffffffffffffffffffffffffffffffffff16815260200191505060405180910390f35b34801561016257600080fd5b5061016b6103ae565b6040518082815260200191505060405180910390f35b6101896103ef565b6040518082815260200191505060405180910390f35b3480156101ab57600080fd5b506101b46104f1565b604051808273ffffffffffffffffffffffffffffffffffffffff1673ffffffffffffffffffffffffffffffffffffffff16815260200191505060405180910390f35b34801561020257600080fd5b5061020b61051b565b604051808273ffffffffffffffffffffffffffffffffffffffff1673ffffffffffffffffffffffffffffffffffffffff16815260200191505060405180910390f35b34801561025957600080fd5b5061028e600480360381019080803573ffffffffffffffffffffffffffffffffffffffff169060200190929190505050610545565b6040518082815260200191505060405180910390f35b3480156102b057600080fd5b506102b9610566565b6040518082815260200191505060405180910390f35b3480156102db57600080fd5b506102e46105a7565b604051808273ffffffffffffffffffffffffffffffffffffffff1673ffffffffffffffffffffffffffffffffffffffff16815260200191505060405180910390f35b60003073ffffffffffffffffffffffffffffffffffffffff1631905090565b60008060009054906101000a900473ffffffffffffffffffffffffffffffffffffffff1673ffffffffffffffffffffffffffffffffffffffff1631905090565b60008060009054906101000a900473ffffffffffffffffffffffffffffffffffffffff16905090565b6000600260009054906101000a900473ffffffffffffffffffffffffffffffffffffffff1673ffffffffffffffffffffffffffffffffffffffff1631905090565b60008060008034925060028381151561040457fe5b04915060028381151561041357fe5b049050600160009054906101000a900473ffffffffffffffffffffffffffffffffffffffff1673ffffffffffffffffffffffffffffffffffffffff166108fc839081150290604051600060405180830381858888f1935050505015801561047e573d6000803e3d6000fd5b50600260009054906101000a900473ffffffffffffffffffffffffffffffffffffffff1673ffffffffffffffffffffffffffffffffffffffff166108fc829081150290604051600060405180830381858888f193505050501580156104e7573d6000803e3d6000fd5b5081935050505090565b6000600260009054906101000a900473ffffffffffffffffffffffffffffffffffffffff16905090565b6000600160009054906101000a900473ffffffffffffffffffffffffffffffffffffffff16905090565b60008173ffffffffffffffffffffffffffffffffffffffff16319050919050565b6000600160009054906101000a900473ffffffffffffffffffffffffffffffffffffffff1673ffffffffffffffffffffffffffffffffffffffff1631905090565b6000309050905600a165627a7a723058205d575ce6979b93b4457cea5448e6a5e078cfe5e3d7d1b2a1026ce820d4c4ff700029",
  "source": "pragma solidity ^0.4.23;\n\ncontract Splitter {\n\n  /* address aliceAddr = address(0xc639c631b7266ff3db41c6ea47a2327f9ccd7b6c);\n  address bobAddr = address(0xec6d6bf5c78b472a09dad4ff28b5515133214d20);\n  address carolAddr = address(0xb77ae4cb57931d8a5129860372bc28b43ee606b6); */\n\n  address aliceAddr = address(0x163935d8bc423c74aae135d14d21711c8e5216e5);\n  address bobAddr = address(0x8b070595588afe0cd0b46ef0129edf70bcfed99d);\n  address carolAddr = address(0x6985c56691276c72720a67740db96300effffab2);\n\n  constructor() public {\n\n  }\n\n  function getSplitterAddress() public view returns (address){\n    return address(this);\n  }\n\n  function getSplitterBalance() public view returns (uint){\n    return address(this).balance;\n  }\n\n  function getIndividualBalance(address personAddr) public view returns (uint) {\n    return address(personAddr).balance;\n  }\n\n  function getAliceBalance() public view returns (uint) {\n    return aliceAddr.balance;\n  }\n\n  function getBobBalance() public view returns (uint) {\n    return bobAddr.balance;\n  }\n\n  function getCarolBalance() public view returns (uint) {\n    return carolAddr.balance;\n  }\n\n  function getAliceAddress() public view returns (address) {\n    return aliceAddr;\n  }\n\n  function getBobAddress() public view returns (address) {\n    return bobAddr;\n  }\n\n  function getCarolAddress() public view returns (address) {\n    return carolAddr;\n  }\n\n  function sendFromAlice() payable public returns (uint) {\n    uint fullAmount = msg.value;\n    uint bobAmount = fullAmount / 2;\n    uint carolAmount = fullAmount / 2;\n\n    bobAddr.transfer(bobAmount);\n    carolAddr.transfer(carolAmount);\n    return bobAmount;\n\n  }\n\n}\n",
  "sourcePath": "/Users/chrismilner/Bluemoon-Consulting/Github_Projects/B9Labs/DAPPS/splitter/contracts/Splitter.sol",
  "compiler": {
    "name": "solc",
    "version": "0.4.24+commit.e67f0147.Emscripten.clang"
  },
  "schemaVersion": "2.0.1",
  "updatedAt": "2018-10-18T07:09:14.350Z"
}