{
  "contractName": "Splitter",
  "abi": [
    {
      "inputs": [
        {
          "name": "_aliceAddress",
          "type": "address"
        },
        {
          "name": "_bobAddress",
          "type": "address"
        },
        {
          "name": "_carolAddress",
          "type": "address"
        }
      ],
      "payable": false,
      "stateMutability": "nonpayable",
      "type": "constructor"
    },
    {
      "anonymous": false,
      "inputs": [
        {
          "indexed": false,
          "name": "",
          "type": "address"
        },
        {
          "indexed": false,
          "name": "",
          "type": "address"
        },
        {
          "indexed": false,
          "name": "",
          "type": "uint256"
        },
        {
          "indexed": false,
          "name": "",
          "type": "address"
        },
        {
          "indexed": false,
          "name": "",
          "type": "uint256"
        }
      ],
      "name": "LogFundsDistributed",
      "type": "event"
    },
    {
      "constant": false,
      "inputs": [],
      "name": "toggleContractActive",
      "outputs": [],
      "payable": false,
      "stateMutability": "nonpayable",
      "type": "function"
    },
    {
      "constant": false,
      "inputs": [],
      "name": "receiveFunds",
      "outputs": [],
      "payable": true,
      "stateMutability": "payable",
      "type": "function"
    },
    {
      "constant": true,
      "inputs": [],
      "name": "getBalances",
      "outputs": [
        {
          "name": "",
          "type": "uint256"
        },
        {
          "name": "",
          "type": "uint256"
        },
        {
          "name": "",
          "type": "uint256"
        }
      ],
      "payable": false,
      "stateMutability": "view",
      "type": "function"
    },
    {
      "constant": true,
      "inputs": [],
      "name": "getMappingBalances",
      "outputs": [
        {
          "name": "",
          "type": "uint256"
        },
        {
          "name": "",
          "type": "uint256"
        },
        {
          "name": "",
          "type": "uint256"
        }
      ],
      "payable": false,
      "stateMutability": "view",
      "type": "function"
    }
  ],
  "bytecode": "0x608060405234801561001057600080fd5b50604051606080610942833981018060405281019080805190602001909291908051906020019092919080519060200190929190505050826000806101000a81548173ffffffffffffffffffffffffffffffffffffffff021916908373ffffffffffffffffffffffffffffffffffffffff16021790555081600160006101000a81548173ffffffffffffffffffffffffffffffffffffffff021916908373ffffffffffffffffffffffffffffffffffffffff16021790555080600260006101000a81548173ffffffffffffffffffffffffffffffffffffffff021916908373ffffffffffffffffffffffffffffffffffffffff16021790555033600360006101000a81548173ffffffffffffffffffffffffffffffffffffffff021916908373ffffffffffffffffffffffffffffffffffffffff1602179055505050506107e68061015c6000396000f300608060405260043610610060576000357c0100000000000000000000000000000000000000000000000000000000900463ffffffff168062113e08146100655780625c33e11461009e5780631385d24c146100a8578063817379c6146100bf575b600080fd5b34801561007157600080fd5b5061007a6100f8565b60405180848152602001838152602001828152602001935050505060405180910390f35b6100a66101b5565b005b3480156100b457600080fd5b506100bd610574565b005b3480156100cb57600080fd5b506100d46105fc565b60405180848152602001838152602001828152602001935050505060405180910390f35b60008060008060009054906101000a900473ffffffffffffffffffffffffffffffffffffffff1673ffffffffffffffffffffffffffffffffffffffff1631600160009054906101000a900473ffffffffffffffffffffffffffffffffffffffff1673ffffffffffffffffffffffffffffffffffffffff1631600260009054906101000a900473ffffffffffffffffffffffffffffffffffffffff1673ffffffffffffffffffffffffffffffffffffffff1631925092509250909192565b6000806000600360149054906101000a900460ff16151561056f576000809054906101000a900473ffffffffffffffffffffffffffffffffffffffff1673ffffffffffffffffffffffffffffffffffffffff163373ffffffffffffffffffffffffffffffffffffffff1614151561022b57600080fd5b60003411151561023a57600080fd5b34925061024683610731565b80925081935050508160046000600160009054906101000a900473ffffffffffffffffffffffffffffffffffffffff1673ffffffffffffffffffffffffffffffffffffffff1673ffffffffffffffffffffffffffffffffffffffff16815260200190815260200160002060008282540192505081905550600160009054906101000a900473ffffffffffffffffffffffffffffffffffffffff1673ffffffffffffffffffffffffffffffffffffffff166108fc839081150290604051600060405180830381858888f19350505050158015610325573d6000803e3d6000fd5b508160046000600260009054906101000a900473ffffffffffffffffffffffffffffffffffffffff1673ffffffffffffffffffffffffffffffffffffffff1673ffffffffffffffffffffffffffffffffffffffff16815260200190815260200160002060008282540192505081905550600260009054906101000a900473ffffffffffffffffffffffffffffffffffffffff1673ffffffffffffffffffffffffffffffffffffffff166108fc839081150290604051600060405180830381858888f193505050501580156103fd573d6000803e3d6000fd5b50600081111561044f573373ffffffffffffffffffffffffffffffffffffffff166108fc829081150290604051600060405180830381858888f1935050505015801561044d573d6000803e3d6000fd5b505b7f47f5c23e3ae036f855e1e1ff8370fd192d30324bf03ebab7de48f32dee7e434d600160009054906101000a900473ffffffffffffffffffffffffffffffffffffffff16600260009054906101000a900473ffffffffffffffffffffffffffffffffffffffff16843385604051808673ffffffffffffffffffffffffffffffffffffffff1673ffffffffffffffffffffffffffffffffffffffff1681526020018573ffffffffffffffffffffffffffffffffffffffff1673ffffffffffffffffffffffffffffffffffffffff1681526020018481526020018373ffffffffffffffffffffffffffffffffffffffff1673ffffffffffffffffffffffffffffffffffffffff1681526020018281526020019550505050505060405180910390a15b505050565b600360009054906101000a900473ffffffffffffffffffffffffffffffffffffffff1673ffffffffffffffffffffffffffffffffffffffff163373ffffffffffffffffffffffffffffffffffffffff161415156105d057600080fd5b600360149054906101000a900460ff1615600360146101000a81548160ff021916908315150217905550565b6000806000600460008060009054906101000a900473ffffffffffffffffffffffffffffffffffffffff1673ffffffffffffffffffffffffffffffffffffffff1673ffffffffffffffffffffffffffffffffffffffff1681526020019081526020016000205460046000600160009054906101000a900473ffffffffffffffffffffffffffffffffffffffff1673ffffffffffffffffffffffffffffffffffffffff1673ffffffffffffffffffffffffffffffffffffffff1681526020019081526020016000205460046000600260009054906101000a900473ffffffffffffffffffffffffffffffffffffffff1673ffffffffffffffffffffffffffffffffffffffff1673ffffffffffffffffffffffffffffffffffffffff16815260200190815260200160002054925092509250909192565b60008061074860028461076b90919063ffffffff16565b905061075e60028461079090919063ffffffff16565b9150818191509150915091565b600080821415151561077c57600080fd5b818381151561078757fe5b06905092915050565b6000806000831115156107a257600080fd5b82848115156107ad57fe5b04905080915050929150505600a165627a7a723058200192ede2ef2279f3dff6ff39188264ffce0dd572d8087d6ae1de7faac962da310029",
  "source": "pragma solidity ^0.4.23;\n\nimport \"./SafeMath.sol\";\n\ncontract Splitter {\n\n  using SafeMath for uint;\n\n  address aliceAddress;\n  address bobAddress;\n  address carolAddress;\n  address owner;\n  bool stopped;\n\n  mapping(address => uint) balances;\n\n  constructor(address _aliceAddress, address _bobAddress, address _carolAddress) public {\n    aliceAddress = _aliceAddress;\n    bobAddress = _bobAddress;\n    carolAddress = _carolAddress;\n    owner = msg.sender;\n  }\n\n   event LogFundsDistributed(address, address, uint, address, uint);\n\n  modifier isAdmin() {\n    if(msg.sender != owner) {\n        revert();\n    }\n    _;\n  }\n\n   function toggleContractActive() isAdmin public\n   {\n    // You can add an additional modifier that restricts stopping a contract to be based on another action, such as a vote of users\n     stopped = !stopped;\n   }\n\n   modifier stopInEmergency { if (!stopped) _; }\n   modifier onlyInEmergency { if (stopped) _; }\n\n\n  function splitFunds(uint fundAmount) internal pure returns (uint splitAmount, uint remainder) {\n    remainder = fundAmount.mod(2);\n    splitAmount = fundAmount.div(2);\n    return (splitAmount, remainder);\n  }\n\n  function receiveFunds() stopInEmergency public payable {\n     require (msg.sender == aliceAddress);\n     require (msg.value > 0);\n     uint amount = msg.value;\n     uint splitAmount;\n     uint remainder;\n     (splitAmount, remainder) = splitFunds(amount);\n     balances[bobAddress] += splitAmount;\n     bobAddress.transfer(splitAmount);\n     balances[carolAddress] += splitAmount;\n     carolAddress.transfer(splitAmount);\n     if (remainder > 0) {\n       msg.sender.transfer(remainder);\n     }\n     emit LogFundsDistributed(bobAddress, carolAddress, splitAmount, msg.sender, remainder);\n  }\n\n  function getBalances() public view returns (uint, uint, uint) {\n    return (aliceAddress.balance, bobAddress.balance, carolAddress.balance);\n  }\n\n  function getMappingBalances() public view returns (uint, uint, uint) {\n    return (balances[aliceAddress], balances[bobAddress], balances[carolAddress]);\n  }\n\n}\n",
  "sourcePath": "/Users/chrismilner/Bluemoon-Consulting/Github_Projects/B9Labs/DAPPS/splitter/contracts/Splitter.sol",
  "compiler": {
    "name": "solc",
    "version": "0.4.24+commit.e67f0147.Emscripten.clang"
  },
  "schemaVersion": "2.0.1",
  "updatedAt": "2018-10-19T05:56:13.889Z"
}